:1000000062C07CC00AC27AC0ECC478C077C076C037
:1000100075C074C073C072C071C070C06FC0090277
:100020002200010100800A09040000010300000011
:100030000921010100012221000705810308000AAE
:100040001201100100000008A020E5410002010299
:1000500003011A034200530030003000300030002A
:10006000300030002D0031002E0035001603420014
:100070006C0069006E006B0053007400690063003F
:100080006B001E036500720069006300640072006B
:1000900061006B0065006E002E0063006F006D0054
:1000A000040309040600FF0901A101150026FF0051
:1000B0007508850195030900B20201851495FA09B6
:1000C00000B20201C00011241FBECFE5D2E0DEBFA6
:1000D000CDBF10E0A0E6B0E0EAEBFBE002C0059087
:1000E0000D92A236B107D9F721E0A2E6B0E001C037
:1000F0001D92AA3CB207E1F7BBD45DC581CFCF9377
:10010000C62F20919F0124FF07C03091A00128E84D
:1001100023272093A00103C02AE520939F012C2FC1
:10012000FC01A1EAB1E081918D9321501216DCF31C
:100130006C2F81EA91E05AD1CC5FC0939F01CF919F
:100140000895CF93DF936091B001635067FDCDC0F8
:100150008091AD01CCE0D0E0C81BD109CC54DE4F7A
:100160008091AC018D3209F0AFC0683009F0BBC09E
:1001700083EC809394018AE5809361001092630080
:100180008881807631F0CE0185D38F3F09F48BC012
:1001900091C09A8110929D018981811106C01092AF
:1001A0009E012DE931E082E079C0853019F4909309
:1001B000B10171C0863009F058C08B81813041F4A3
:1001C00080E490E09093AF018093AE0182E149C05A
:1001D000823041F48EE190E09093AF018093AE01C4
:1001E00082E23FC0833041F5911108C080EA90E07F
:1001F0009093AF018093AE0184E033C0913041F41D
:1002000082E890E09093AF018093AE018EE129C027
:10021000923041F48CE690E09093AF018093AE0170
:1002200086E11FC09330E1F482E590E09093AF0146
:100230008093AE018AE115C0813241F480E390E001
:100240009093AF018093AE0189E00BC0823241F4FC
:1002500084EA90E09093AF018093AE0181E201C007
:1002600080E090E49093630025C0883069F0893085
:1002700019F49093B3010FC08A3049F08B3059F4D0
:100280008BE48093A00107C023EB31E002C02DE98D
:1002900031E081E003C02DE931E080E03093AF012F
:1002A0002093AE0107C0988197FD8E8190E89093CE
:1002B000630007C09F81911104C09E81981708F4C4
:1002C000892F809360000FC08091630087FF0BC06F
:1002D000CE0193D28F3F21F48EE18093610003C061
:1002E0008111109260001092B0018091610084FF32
:1002F00045C0809160008F3F09F440C0C82F89300D
:1003000008F0C8E08C1B809360009091940188E80D
:10031000892780939401CC2329F18091AE0190919B
:10032000AF012091630026FF0AC0A5E9B1E0FC01FE
:100330002C2F34913D9331962150D9F708C0DC0120
:10034000E5E9F1E02C2F3D9131932150E1F72FEFBA
:100350002C0F30E02F5F3F4F820F931F9093AF0120
:100360008093AE016C2F85E991E040D0CC5FCC301A
:1003700019F08FEF80936000C093610084E196B321
:10038000987131F48150D9F71092B1011092AB01FC
:10039000C1E08111C0E090916200C91721F0811184
:1003A000D8D2C0936200DF91CF910895AC9A8BB7F9
:1003B00080628BBFEFE9F1E08BE481838AE5808383
:1003C0000895A82FB92F80E090E041E050EA6095B1
:1003D00030E009C02D9182279795879510F08427EA
:1003E0009527305EC8F36F5FA8F30895EADF8D9319
:1003F0009D930895A6E088279927AA9569F001970B
:10040000E1F3B399FCCFB39BFECF81E09927A6B36C
:10041000019611F0A871D9F70895CF93CFB7CF9374
:10042000C395B39BE9F7B39B0BC0B39B09C0B39BC8
:1004300007C0B39B05C0B39B03C0B39B01C0D5C02D
:100440000F92DF93C091AD01DD27CC54DE4F012E1A
:10045000B39B03C0DF910F90E6CF2F930F931F93B1
:100460004F932FEF4F6F06B303FB20F95F933F933A
:1004700050E03BE065C016B30126502953FDC895F6
:1004800056B3012703FB25F92F7306B3B1F05027AC
:10049000102713FB26F906B22230F0F000C016B385
:1004A000012703FB27F90126502906B22430E8F57D
:1004B0004F77206816B30000F6CF50274F7D20629B
:1004C00006B2102F000000C006B3002650291027E6
:1004D00013FB26F906B2E2CF4F7B06B3206400C0BF
:1004E000DACF01265029187106B269F14E7F2160DA
:1004F000012F16B328C0002650294D7F06B2226076
:10050000102F29C0012650294B7F06B22460012FED
:100510002DC016B301265029477F2860000006B27F
:100520002EC04F7E06B3206130C0422706B34993E8
:1005300000265029102706B24FEF13FB20F9297F20
:1005400016B379F2187159F10126502906B2012724
:1005500003FB21F9237F06B371F2002650293150A5
:10056000D0F006B2102713FB22F9277E16B351F202
:1005700001265029012703FB06B223F92F7C49F2FB
:10058000000006B3102713FB24F90026502906B2F9
:100590002F7939F270CF10E21ABF002719C03B50F3
:1005A0003195C31BD04010E21ABF0881033C09F10A
:1005B0000B34F9F02091AB011981110F1213EDCF1B
:1005C0004A81441F093651F10D3211F0013E29F7DD
:1005D0000093B2013F915F914F911F910F912F9125
:1005E000DF910F90CAB7C5FD1BCFCF91CFBFCF9181
:1005F00018952091B201222369F31091B0011123C3
:1006000079F534307AF13093B0012093AC01109138
:10061000AD013BE0311B3093AD0124C00091B0012E
:100620000130F4F40AE54F7049F43091610034FD73
:100630001AC000936100C4E9D1E019C030919F0154
:1006400034FD11C000939F01C0EAD1E010C005271E
:1006500010E000C021C0052710E0C89508BB14C0F9
:100660003AE501C032ED032EC0E0D0E032E017B32E
:100670001861C39A08B317BB58E120E84FEF20FF79
:10068000052708BB279517951C3F28F70000455202
:10069000B0F720FF0527279508BB17951C3FB8F634
:1006A00029913A9561F7077E1091B101110F08BBAE
:1006B000C250D04011F01093AB0110E21ABF086095
:1006C00017B3177E402F477E54E05A95F1F708BBC9
:1006D00017BB48BB7FCF28B3342F3095232338B3C3
:1006E000432B3FB7F894680F791F86179707A9F037
:1006F000FC013196DC018C9198E048BB000000C001
:1007000087FF28BB880F00C000C000C000C028BB06
:1007100000C09A9591F7CF01E8CF3FBF08952FB75A
:10072000F8946091640070916500809166009091EA
:1007300067002FBF0895F89410926B0110926A0120
:1007400010929201ECDF60936C0170936D018093C5
:100750006E0190936F01789408950F931F93CF9338
:10076000DF938C01C0E0D0E0C017D10749F08CE1E5
:1007700090E10197F1F700C00000E3DC2196F4CF8F
:10078000DF91CF911F910F9108951F93CF93DF9326
:10079000182FC0E0D0E2C11761F110926D00D09324
:1007A0006E0010926F0042E063E070E08DE690E032
:1007B00092DF27E884E892E0215080409040E1F702
:1007C00000C0000010926D0010926E0010926F0039
:1007D00042E063E070E08DE690E07DDF27E884E8AA
:1007E00092E0215080409040E1F700C00000CF5FD0
:1007F000D2CFDF91CF911F910895CF93C0919101F6
:10080000C13089F4FC01818180936D0082818093E5
:100810006E00838180936F0042E063E070E08DE6BC
:1008200090E059DF34C0C43189F520919201211143
:1008300004C081E080936B0129C0422F621708F445
:10084000462F30919301311104C0FC015181509326
:100850006A01582FA32FB0E0A059BF4FFC018E2F83
:10086000851B841718F481918D93F9CF340F309341
:100870009301241B20939201211103C081E08093F6
:100880006B01C1E0222319F0C0E001C0C1E08C2F50
:10089000CF910895CF93DF93EC0141DF60936C011A
:1008A00070936D0180936E0190936F018A818093A4
:1008B000910198819076903211F080E047C0998143
:1008C000913041F520E731E03093AF012093AE0144
:1008D000813081F48093700180916D00809371016B
:1008E00080916E008093720180916F0080937301FC
:1008F00084E02CC0843109F780E790E09093AF0149
:100900008093AE018E819F818B3F9105F8F08AEF35
:1009100090E01CC0993089F690916B019111CDCF78
:10092000813031F483E080939201109293010DC0E5
:10093000843119F6109293018E819F818B3F91052E
:1009400010F08AEF90E0809392018FEFDF91CF91CA
:100950000895DF92EF92FF920F931F93CF93DF934F
:10096000F89488E0E82EF12CC0E0D0E8DD2EDC0E13
:10097000D1BE40DD8C01043389E018070CF4CD2D85
:10098000D69581E0E81AF10889F78FEF8C0F81BFC7
:10099000EC2EF12C8FEFE81AF80A81B790E0E816F8
:1009A000F9068CF027DD8453994097FF03C0919599
:1009B000819591098017910714F4C1B78C0181B713
:1009C0008F5F81BFEACFC1BF61B780E090E0E5D023
:1009D0007894DF91CF911F910F91FF90EF90DF906E
:1009E000089578941F920F920FB60F9211242F93AF
:1009F0003F938F939F93AF93BF93809164009091A7
:100A00006500A0916600B091670030916C002CE702
:100A1000230F2D3728F02FEF230F0196A11DB11DB5
:100A200020936C008093640090936500A09366000F
:100A3000B09367008091680090916900A0916A006E
:100A4000B0916B000196A11DB11D80936800909339
:100A50006900A0936A00B0936B00BF91AF919F9122
:100A60008F913F912F910F900FBE0F901F9018956F
:100A7000F8940FB6F894A89581B5886181BD11BC32
:100A80000FBE94DCBB9A80E0815039F0E9E3F0E2DC
:100A90003197F1F700C00000F7CFBB98B99A78946E
:100AA00010BE8CB581788CBD1FBC1EBC1BBC1DBC90
:100AB00089B78B7989BF88B7846688BF80B787601C
:100AC00080BF89B7846089BF82E05FDE3ADB8091B6
:100AD0006B01882361F1C0E080916A01C81730F58D
:100AE000EC2FF0E0EE0FFF1FEE0FFF1FE059FF4F5E
:100AF000828180936D00838180936E0084818093D6
:100B00006F00858190E06AE070E036D08C01F89447
:100B100042E063E070E08DE690E0DDDD7894011561
:100B2000110511F0C80119DECF5FD6CF04DEF7DD65
:100B300000916C0110916D0120916E0130916F0157
:100B4000DC01CB01801B910BA20BB30B80369A4EBC
:100B5000A105B10508F4BACF81E017DE10926D004F
:100B600010926E0010926F0042E063E070E08DE63C
:100B700090E0B1DDE0DDAACF0024552704C0080EC7
:100B8000591F880F991F009729F076956795B8F33C
:100B90007105B9F7802D952F0895262FE199FECF85
:100BA0001CBA9FBB8EBB2DBB0FB6F894E29AE19A9C
:0A0BB0000FBE01960895F894FFCFE0
:020BBA00FF5AE0
:00000001FF
